{
  "address": "0x07200cdcEa932480979fE9612F01548E120d3998",
  "abi": [
    {
      "inputs": [
        {
          "internalType": "address",
          "name": "priceFeedAddress",
          "type": "address"
        }
      ],
      "stateMutability": "nonpayable",
      "type": "constructor"
    },
    {
      "anonymous": false,
      "inputs": [
        {
          "indexed": true,
          "internalType": "address",
          "name": "from",
          "type": "address"
        },
        {
          "indexed": false,
          "internalType": "uint256",
          "name": "amount",
          "type": "uint256"
        }
      ],
      "name": "Funded",
      "type": "event"
    },
    {
      "inputs": [],
      "name": "MINIMUM_USD",
      "outputs": [
        {
          "internalType": "uint256",
          "name": "",
          "type": "uint256"
        }
      ],
      "stateMutability": "view",
      "type": "function"
    },
    {
      "inputs": [
        {
          "internalType": "address",
          "name": "",
          "type": "address"
        }
      ],
      "name": "addressToAmountFunded",
      "outputs": [
        {
          "internalType": "uint256",
          "name": "",
          "type": "uint256"
        }
      ],
      "stateMutability": "view",
      "type": "function"
    },
    {
      "inputs": [],
      "name": "fund",
      "outputs": [],
      "stateMutability": "payable",
      "type": "function"
    },
    {
      "inputs": [
        {
          "internalType": "uint256",
          "name": "",
          "type": "uint256"
        }
      ],
      "name": "funders",
      "outputs": [
        {
          "internalType": "address",
          "name": "",
          "type": "address"
        }
      ],
      "stateMutability": "view",
      "type": "function"
    },
    {
      "inputs": [],
      "name": "owner",
      "outputs": [
        {
          "internalType": "address",
          "name": "",
          "type": "address"
        }
      ],
      "stateMutability": "view",
      "type": "function"
    },
    {
      "inputs": [],
      "name": "priceFeed",
      "outputs": [
        {
          "internalType": "contract AggregatorV3Interface",
          "name": "",
          "type": "address"
        }
      ],
      "stateMutability": "view",
      "type": "function"
    },
    {
      "inputs": [],
      "name": "withdraw",
      "outputs": [],
      "stateMutability": "nonpayable",
      "type": "function"
    }
  ],
  "transactionHash": "0x8b596a0b86f7140d1afc5651c31c126e4168219d94ca79ce4a6881211e2cd447",
  "args": [
    "0x8A753747A1Fa494EC906cE90E9f37563A8AF630e"
  ],
  "numDeployments": 2,
  "solcInputHash": "959ae180717cbd6045c3d39515f02409",
  "bytecode": "0x608060405234801561001057600080fd5b506040516200108b3803806200108b8339818101604052810190610034919061011f565b33600260006101000a81548173ffffffffffffffffffffffffffffffffffffffff021916908373ffffffffffffffffffffffffffffffffffffffff16021790555080600360006101000a81548173ffffffffffffffffffffffffffffffffffffffff021916908373ffffffffffffffffffffffffffffffffffffffff1602179055505061014c565b600080fd5b600073ffffffffffffffffffffffffffffffffffffffff82169050919050565b60006100ec826100c1565b9050919050565b6100fc816100e1565b811461010757600080fd5b50565b600081519050610119816100f3565b92915050565b600060208284031215610135576101346100bc565b5b60006101438482850161010a565b91505092915050565b610f2f806200015c6000396000f3fe6080604052600436106100705760003560e01c8063741bef1a1161004e578063741bef1a146100f45780638da5cb5b1461011f578063b60d42881461014a578063dc0d3dff1461015457610070565b80633ccfd60b146100755780633e47d6f31461008c5780636b69a592146100c9575b600080fd5b34801561008157600080fd5b5061008a610191565b005b34801561009857600080fd5b506100b360048036038101906100ae91906107fb565b6103dc565b6040516100c09190610841565b60405180910390f35b3480156100d557600080fd5b506100de6103f4565b6040516100eb9190610841565b60405180910390f35b34801561010057600080fd5b50610109610401565b60405161011691906108bb565b60405180910390f35b34801561012b57600080fd5b50610134610427565b60405161014191906108e5565b60405180910390f35b61015261044d565b005b34801561016057600080fd5b5061017b6004803603810190610176919061092c565b6105d6565b60405161018891906108e5565b60405180910390f35b600260009054906101000a900473ffffffffffffffffffffffffffffffffffffffff1673ffffffffffffffffffffffffffffffffffffffff163373ffffffffffffffffffffffffffffffffffffffff1614610221576040517f08c379a0000000000000000000000000000000000000000000000000000000008152600401610218906109b6565b60405180910390fd5b60005b6000805490508110156102cc576000808281548110610246576102456109d6565b5b9060005260206000200160009054906101000a900473ffffffffffffffffffffffffffffffffffffffff1690506000600160008373ffffffffffffffffffffffffffffffffffffffff1673ffffffffffffffffffffffffffffffffffffffff168152602001908152602001600020819055505080806102c490610a34565b915050610224565b50600067ffffffffffffffff8111156102e8576102e7610a7d565b5b6040519080825280602002602001820160405280156103165781602001602082028036833780820191505090505b506000908051906020019061032c9291906106f1565b5060003373ffffffffffffffffffffffffffffffffffffffff164760405161035390610add565b60006040518083038185875af1925050503d8060008114610390576040519150601f19603f3d011682016040523d82523d6000602084013e610395565b606091505b50509050806103d9576040517f08c379a00000000000000000000000000000000000000000000000000000000081526004016103d090610b3e565b60405180910390fd5b50565b60016020528060005260406000206000915090505481565b6802b5e3af16b188000081565b600360009054906101000a900473ffffffffffffffffffffffffffffffffffffffff1681565b600260009054906101000a900473ffffffffffffffffffffffffffffffffffffffff1681565b6802b5e3af16b188000061048c600360009054906101000a900473ffffffffffffffffffffffffffffffffffffffff163461061590919063ffffffff16565b10156104cd576040517f08c379a00000000000000000000000000000000000000000000000000000000081526004016104c490610baa565b60405180910390fd5b34600160003373ffffffffffffffffffffffffffffffffffffffff1673ffffffffffffffffffffffffffffffffffffffff168152602001908152602001600020600082825461051c9190610bca565b925050819055506000339080600181540180825580915050600190039060005260206000200160009091909190916101000a81548173ffffffffffffffffffffffffffffffffffffffff021916908373ffffffffffffffffffffffffffffffffffffffff1602179055503373ffffffffffffffffffffffffffffffffffffffff167f5af8184bef8e4b45eb9f6ed7734d04da38ced226495548f46e0c8ff8d7d9a524346040516105cc9190610841565b60405180910390a2565b600081815481106105e657600080fd5b906000526020600020016000915054906101000a900473ffffffffffffffffffffffffffffffffffffffff1681565b60008061062183610651565b90506000670de0b6b3a7640000858361063a9190610c20565b6106449190610ca9565b9050809250505092915050565b6000808273ffffffffffffffffffffffffffffffffffffffff1663feaf968c6040518163ffffffff1660e01b815260040160a06040518083038186803b15801561069a57600080fd5b505afa1580156106ae573d6000803e3d6000fd5b505050506040513d601f19601f820116820180604052508101906106d29190610d67565b5050509150506402540be400816106e99190610de2565b915050919050565b82805482825590600052602060002090810192821561076a579160200282015b828111156107695782518260006101000a81548173ffffffffffffffffffffffffffffffffffffffff021916908373ffffffffffffffffffffffffffffffffffffffff16021790555091602001919060010190610711565b5b509050610777919061077b565b5090565b5b8082111561079457600081600090555060010161077c565b5090565b600080fd5b600073ffffffffffffffffffffffffffffffffffffffff82169050919050565b60006107c88261079d565b9050919050565b6107d8816107bd565b81146107e357600080fd5b50565b6000813590506107f5816107cf565b92915050565b60006020828403121561081157610810610798565b5b600061081f848285016107e6565b91505092915050565b6000819050919050565b61083b81610828565b82525050565b60006020820190506108566000830184610832565b92915050565b6000819050919050565b600061088161087c6108778461079d565b61085c565b61079d565b9050919050565b600061089382610866565b9050919050565b60006108a582610888565b9050919050565b6108b58161089a565b82525050565b60006020820190506108d060008301846108ac565b92915050565b6108df816107bd565b82525050565b60006020820190506108fa60008301846108d6565b92915050565b61090981610828565b811461091457600080fd5b50565b60008135905061092681610900565b92915050565b60006020828403121561094257610941610798565b5b600061095084828501610917565b91505092915050565b600082825260208201905092915050565b7f4e6f74206f776e65720000000000000000000000000000000000000000000000600082015250565b60006109a0600983610959565b91506109ab8261096a565b602082019050919050565b600060208201905081810360008301526109cf81610993565b9050919050565b7f4e487b7100000000000000000000000000000000000000000000000000000000600052603260045260246000fd5b7f4e487b7100000000000000000000000000000000000000000000000000000000600052601160045260246000fd5b6000610a3f82610828565b91507fffffffffffffffffffffffffffffffffffffffffffffffffffffffffffffffff821415610a7257610a71610a05565b5b600182019050919050565b7f4e487b7100000000000000000000000000000000000000000000000000000000600052604160045260246000fd5b600081905092915050565b50565b6000610ac7600083610aac565b9150610ad282610ab7565b600082019050919050565b6000610ae882610aba565b9150819050919050565b7f43616c6c206661696c6564000000000000000000000000000000000000000000600082015250565b6000610b28600b83610959565b9150610b3382610af2565b602082019050919050565b60006020820190508181036000830152610b5781610b1b565b9050919050565b7f596f75206469646e27742073656e6420656e6f75676820455448000000000000600082015250565b6000610b94601a83610959565b9150610b9f82610b5e565b602082019050919050565b60006020820190508181036000830152610bc381610b87565b9050919050565b6000610bd582610828565b9150610be083610828565b9250827fffffffffffffffffffffffffffffffffffffffffffffffffffffffffffffffff03821115610c1557610c14610a05565b5b828201905092915050565b6000610c2b82610828565b9150610c3683610828565b9250817fffffffffffffffffffffffffffffffffffffffffffffffffffffffffffffffff0483118215151615610c6f57610c6e610a05565b5b828202905092915050565b7f4e487b7100000000000000000000000000000000000000000000000000000000600052601260045260246000fd5b6000610cb482610828565b9150610cbf83610828565b925082610ccf57610cce610c7a565b5b828204905092915050565b600069ffffffffffffffffffff82169050919050565b610cf981610cda565b8114610d0457600080fd5b50565b600081519050610d1681610cf0565b92915050565b6000819050919050565b610d2f81610d1c565b8114610d3a57600080fd5b50565b600081519050610d4c81610d26565b92915050565b600081519050610d6181610900565b92915050565b600080600080600060a08688031215610d8357610d82610798565b5b6000610d9188828901610d07565b9550506020610da288828901610d3d565b9450506040610db388828901610d52565b9350506060610dc488828901610d52565b9250506080610dd588828901610d07565b9150509295509295909350565b6000610ded82610d1c565b9150610df883610d1c565b9250827f7fffffffffffffffffffffffffffffffffffffffffffffffffffffffffffffff0482116000841360008413161615610e3757610e36610a05565b5b817f80000000000000000000000000000000000000000000000000000000000000000583126000841260008413161615610e7457610e73610a05565b5b827f80000000000000000000000000000000000000000000000000000000000000000582126000841360008412161615610eb157610eb0610a05565b5b827f7fffffffffffffffffffffffffffffffffffffffffffffffffffffffffffffff0582126000841260008412161615610eee57610eed610a05565b5b82820290509291505056fea2646970667358221220bcddc72fe29155b69736817141c092d1d64d88630e6e34af7b7197e18113fb9c64736f6c63430008080033",
  "devdoc": {
    "kind": "dev",
    "methods": {},
    "version": 1
  },
  "userdoc": {
    "kind": "user",
    "methods": {},
    "version": 1
  },
  "storageLayout": {
    "storage": [
      {
        "astId": 61,
        "contract": "contracts/FundMe.sol:FundMe",
        "label": "funders",
        "offset": 0,
        "slot": "0",
        "type": "t_array(t_address)dyn_storage"
      },
      {
        "astId": 65,
        "contract": "contracts/FundMe.sol:FundMe",
        "label": "addressToAmountFunded",
        "offset": 0,
        "slot": "1",
        "type": "t_mapping(t_address,t_uint256)"
      },
      {
        "astId": 67,
        "contract": "contracts/FundMe.sol:FundMe",
        "label": "owner",
        "offset": 0,
        "slot": "2",
        "type": "t_address"
      },
      {
        "astId": 77,
        "contract": "contracts/FundMe.sol:FundMe",
        "label": "priceFeed",
        "offset": 0,
        "slot": "3",
        "type": "t_contract(AggregatorV3Interface)45"
      }
    ],
    "types": {
      "t_address": {
        "encoding": "inplace",
        "label": "address",
        "numberOfBytes": "20"
      },
      "t_array(t_address)dyn_storage": {
        "base": "t_address",
        "encoding": "dynamic_array",
        "label": "address[]",
        "numberOfBytes": "32"
      },
      "t_contract(AggregatorV3Interface)45": {
        "encoding": "inplace",
        "label": "contract AggregatorV3Interface",
        "numberOfBytes": "20"
      },
      "t_mapping(t_address,t_uint256)": {
        "encoding": "mapping",
        "key": "t_address",
        "label": "mapping(address => uint256)",
        "numberOfBytes": "32",
        "value": "t_uint256"
      },
      "t_uint256": {
        "encoding": "inplace",
        "label": "uint256",
        "numberOfBytes": "32"
      }
    }
  }
}